:020000040020DA
:100000009C4A0020D72E2000C12E2000CB2E20009D
:10001000D12E2000D12E2000D12E20000000000083
:10002000000000000000000000000000D12E2000B1
:10003000D12E200000000000D12E2000D12E200063
:10004000D12E2000D12E2000D12E2000D12E200034
:1000500000000000D12E2000D12E2000D12E200043
:10006000D12E200000000000000000000000000071
:100070000000000000000000D12E20000000000061
:100080000000000000000000D12E2000D12E200032
:10009000D12E2000D12E2000D12E2000D12E2000E4
:1000A000D12E2000D12E2000D12E2000D12E2000D4
:1000B000D12E2000D12E2000D12E2000D12E2000C4
:1000C000D12E2000D12E2000D12E2000D12E2000B4
:1000D000D12E200000000000000000000000000001
:1000E0000000000000000000000000000000000010
:1000F000D12E200000000000D12E2000D12E2000A3
:1001000000000000000000000000000000000000EF
:1001100000000000000000000000000000000000DF
:1001200000000000000000000000000000000000CF
:1001300000000000000000000000000000000000BF
:1001400000000000000000000000000000000000AF
:10015000000000000000000000000000000000009F
:10016000000000000000000000000000000000008F
:10017000000000000000000000000000000000007F
:10018000000000000000000000000000000000006F
:10019000000000000000000000000000000000005F
:1001A000000000000000000000000000000000004F
:1001B000000000000000000000000000000000003F
:1001C000000000000000000000000000000000002F
:1001D000000000000000000000000000000000001F
:1001E000000000000000000000000000000000000F
:1001F00000000000000000000000000000000000FF
:1002000000000000000000000000000000000000EE
:1002100000000000000000000000000000000000DE
:1002200000000000000000000000000000000000CE
:1002300000000000000000000000000000000000BE
:1002400000000000000000000000000000000000AE
:10025000000000000000000000000000000000009E
:10026000000000000000000000000000000000008E
:10027000D12E2000D12E2000D12E2000D12E200002
:10028000D12E2000D12E2000D12E200080B500AF2D
:100290004FF4BD720021174806F060FA154B012299
:1002A0005A7001F020FB00F0CBFC00F083FD002130
:1002B000FF2000F091FD03461A460E4B1A7002F023
:1002C00044F90D4801F012FF0C4802F011FB0C48F4
:1002D00002F01CFB0B490C4802F080FE00F018F8FD
:1002E0000F210A4800F0EEFC00F0BCFC0023184689
:1002F00080BD00BFB04A00200C4B0020290A20001E
:100300003B0A2000250920007D0720002907200046
:1003100080B500AF02F07EFE02F072FE024B0022BA
:1003200083F8492000BF80BDB04A002080B500AFEF
:10033000114B93F82330002B1BD00F4BB3F85430E4
:1003400001339AB20C4BA3F854200B4B4FF6FF72BB
:10035000DA84094B002283F82220074B002283F81D
:100360002820054B002283F829207E2002F070FE11
:1003700000E000BF80BD00BFB04A002080B500AFE4
:100380001E4B93F84830002B08D11C4BB3F8583063
:1003900001339AB2194BA3F858202AE0174B93F86F
:1003A0002A30013B052B1BD801A252F823F000BFD5
:1003B000C9032000E1032000CF032000D503200063
:1003C000E1032000DB03200000F01AF811E000F048
:1003D0005DF80EE000F09EF80BE000F03DF908E05B
:1003E000064BB3F85A3001339AB2044BA3F85A20A3
:1003F00000BFFFF78DFF00BF80BD00BFB04A0020E7
:1004000080B500AF094B93F84830012B08D0074B5B
:10041000B3F8583001339AB2044BA3F8582003E0E4
:100420000F21034800F04EFC80BD00BFB04A002001
:100430003504200080B582B000AF124B7B607B6832
:1004400002221A70104B5A787B685A700E4B5B88E8
:10045000184600F07FF903461A467B685A807B688D
:100460001A1D094B5C3319685B6811605360064BB9
:100470000C2283F82320FFF759FF00BF0837BD4641
:1004800080BD00BFB44A0020B04A002080B500AF54
:10049000134B93F84830012B08D0114BB3F8583068
:1004A00001339AB20E4BA3F8582018E00F210D48E3
:1004B00000F008FC0A4B5B78022B05D1084B1B7837
:1004C000184600F06DFF05E0054B5B78042B01D169
:1004D00001F0EDFF02F07AFA014B01225A7080BD63
:1004E000B04A0020E904200080B582B000AF074B7D
:1004F0007B607B680A221A70054B012283F8232057
:10050000FFF714FF00BF0837BD4680BDB44A002086
:10051000B04A002090B585B002AF3F4B93F8483009
:100520000B2B08D03C4BB3F8583001339AB23A4BFE
:10053000A3F858206CE00F21384800F0C3FB364B7D
:100540005B78022B63D0344B02225A70324B00226C
:100550005A80334B7B60304B0022A3F8E4207B6849
:100560005A7A2D4B83F8E6207B68B3F805309BB2AE
:10057000184600F0EFF803461A46274BA3F8E82088
:10058000254B254A64335C321168526819605A6001
:100590007B68B3F803309BB2184600F0DBF80346E3
:1005A0007B807A881C4BA3F86C201B4BB3F8E4309B
:1005B000184600F0CFF803463B803A88164BA3F864
:1005C0006E207B689B7A1946134B93F8E6300E3BFE
:1005D0001A46144806F0C2F802F0F2F97B685B781C
:1005E000184602F0C7F90C4B1C787B68B3F807304B
:1005F0009BB2184600F0AEF8034619460A4B00932A
:1006000000230022204600F04BFC00BF00E000BFAA
:100610000C37BD4690BD00BFB04A00202D0620001B
:10062000DA4A0020204B0020890B200080B582B0E0
:1006300000AF074B7B607B680B221A70054B0122D1
:1006400083F82320FFF772FE00BF0837BD4680BD48
:10065000B44A0020B04A002080B582B000AF244BDD
:1006600093F848300E2B08D0214BB3F858300133A3
:100670009AB21F4BA3F8582036E00F211D4800F016
:1006800021FB1D4B7B607B681A7B194B83F8E620AE
:100690007B685B899BB2184600F05CF803461A46FB
:1006A000134BA3F8F4207B685A7B114B83F8EA20A4
:1006B0007B689A1C0E4BEB331168526819605A60C4
:1006C0000B4B00225A8001F0EBFE02F079F97B68B7
:1006D0005B78184602F04EF902F000FA02F00EFACA
:1006E000034B04225A7000BF0837BD4680BD00BFCF
:1006F000B04A0020FD062000DA4A002080B582B012
:1007000000AF074B7B607B680C221A70054B0122FF
:1007100083F82320FFF70AFE00BF0837BD4680BDDF
:10072000B44A0020B04A002080B582B000AF074B29
:100730007B607B6808221A70054B012283F8232016
:10074000FFF7F4FD00BF0837BD4680BDB44A002066
:10075000B04A002080B483B000AF0346FB80FB8822
:100760001B021AB2FB881B0A9BB21BB213431BB2BB
:100770009BB218460C37BD4680BC704780B582B02E
:1007800000AF01F063FE474B93F82330002B76D087
:10079000444B93F822301A46424B13441B79FB71A9
:1007A000404B93F82430002B0DD1FB797E2B02D0E7
:1007B000FB797D2B07D17D2002F04AFC394B0122C9
:1007C00083F824202BE0374BDB8CFA79114618464E
:1007D00000F0D4FA03461A46324BDA84314B93F8D0
:1007E0002430012B07D1FB7983F02003FB712D4BC3
:1007F000002283F824202B4B93F822300133DAB205
:10080000284B83F82220274B93F82330013BDAB2A0
:10081000244B83F82320FB79184602F019FC214B66
:1008200093F82330002B36D11E4B93F82830002B41
:1008300031D11C4BDB8CDB43BB801A4B93F822304D
:100840001946BB88DAB2174B0B441A71BB881B0AD6
:100850009AB2144B93F822300133D1B2114A1344A7
:100860000A461A710F4B93F823300233DAB20D4B5C
:1008700083F823200B4B012283F828200BE0094B3F
:1008800093F82930002B06D1064B012283F829204A
:100890007E2002F0DDFB01F0E0FD00BF0837BD4621
:1008A00080BD00BFB04A002080B582B000AF0346D3
:1008B000FB71FB797D2B04D1194B012283F84A206F
:1008C0002AE0174B93F84A30012B07D1FB7983F0CC
:1008D0002003FB71124B002283F84A20104B93F83F
:1008E00048301A460E4B1344FA7983F82A200C4BF1
:1008F00093F848300133DAB2094B83F84820084BAB
:10090000B3F84C30FA791146184600F037FA03462E
:100910001A46034BA3F84C2000BF0837BD4680BDE4
:10092000B04A002080B582B000AF01F08FFD02F028
:10093000B5FB0346FB713A4B93F84E30002B19D1AF
:10094000374B93F849307E2B14D1FB797E2B11D095
:10095000334B012283F84E20314B002283F848208C
:100960002F4B4FF6FF72A3F84C20FB791846FFF788
:100970009BFF4AE02A4B93F84E30012B15D1FB79AF
:100980007E2B12D0FB791846FFF78EFF244B93F88D
:10099000483001331E2B38DD214B002283F84820DC
:1009A0001F4B002283F84E202FE01D4B93F84E3052
:1009B000012B2AD1FB797E2B27D1194BB3F84C3070
:1009C0004FF2B802934214D1154BB3F850300133B3
:1009D0009AB2134BA3F85020114B93F84830023BC6
:1009E000DAB20F4B83F848200F210E4800F06AF965
:1009F00007E00B4BB3F8523001339AB2084BA3F81F
:100A00005220074B002283F84E20054AFB7982F8DA
:100A1000493001F022FD002318460837BD4680BD4D
:100A2000B04A00207D03200080B483B000AF78601E
:100A300000BF0C37BD4680BC704780B588B002AFA0
:100A400078600123FB7501F0C1FF474B5B78042BF5
:100A500040F085807F220021444805F07FFE444B12
:100A60000193444B0093444B7F2244493F4802F09A
:100A70005FF83E4BFB60FB6808224149184605F0D1
:100A80003BFE0346002B01D00023FB75364B93F849
:100A90007521354B93F8E6309A4201D00023FB755F
:100AA000FB681B899AB2304BB3F8F4309A4201D0FC
:100AB0000023FB750C233B610FE02B4A3B69134479
:100AC000F6331A78284B93F8EA309A4202D0002382
:100AD000FB7509E03B6901333B61234B93F87531AA
:100AE000023B3A699A42E8DBFB7D002B31D01E4B7A
:100AF00093F87931002B2CD0224BBB60BB680722C6
:100B00001A70194B93F87521BB685A70164B93F9FC
:100B10007721BB689A70144B93F87931DB015AB294
:100B2000FB7D9B015BB213435BB2DAB2BB68DA7048
:100B3000FB685B899AB2BB689A800B4B062283F8EC
:100B40002320FFF7F3FB084B5B8801339AB2064B77
:100B50005A8001F035FF01F0C1FF01F0CFFF00BF67
:100B60001837BD4680BD00BFB04A0020A64B00200C
:100B7000294C0020284C0020274C0020254C002028
:100B80009B4B0020B44A002080B586B000AF0346DE
:100B9000FB710A23FB75274BB3F8E420254BB3F810
:100BA000E8309A421DD1234B1B78184600F0F8FB21
:100BB00001F00CFF1F4B03225A701F4B3B613B6936
:100BC00005221A701B4B012283F82320FFF7AEFB8E
:100BD000184B5B8801339AB2164B5A8001F0F6FE2F
:100BE00025E001F009FC134B93F8E6309BB219465F
:100BF000124801F0FFFE01F039FF01F047FF01F05C
:100C000002FC0C4BB3F8E43001339AB2094BA3F861
:100C1000E420084BB3F8E4301846FFF79BFD034689
:100C2000FB81FB7D054A1344FA891A8000BF1837FF
:100C3000BD4680BDB04A0020B44A0020144B0020BD
:100C400080B500AF80220021044805F087FD022214
:100C50000021034805F082FD00BF80BD2C4C002020
:100C6000AC4C002080B582B000AF1CE004F0D3F89B
:100C7000124B9B6F7B607B689B68104A936704F004
:100C8000BEF87B681B6898477B6800221A607B6807
:100C900000221A717B6800229A60094B1B78013B85
:100CA000DAB2074B1A70054B9B6F002BDED101F0B7
:100CB00081F900F06DFE01F089F9F4E72C4C002079
:100CC000AC4C002080B584B000AF78600B46FB7060
:100CD00004F0A1F8254BFB6002E0FB680C33FB60DD
:100CE000FB681B68002B03D0FB68214A9342F4D9B0
:100CF000FB681F4A934203D901F035FC00F08EFED9
:100D0000FB687A681A60FB68FA781A71194BBB6045
:100D100003E0BB681B680833BB60BB681B68002B23
:100D200006D0BB681B681A79FB681B799A42F0D918
:100D3000BB681A68FB689A60BB68FA681A600E4B59
:100D40001B780133DAB20C4B1A700B4B1A780A4B32
:100D50005B789A4203D9084B1A78074B5A7004F013
:100D60004EF800BF1037BD4680BD00BF2C4C0020A0
:100D7000984C0020A44C0020AC4C002080B483B0E0
:100D800000AF03460A46FB8013467B71FB881B0AB3
:100D90009AB2F9887B794B40DBB2054931F81330C0
:100DA00053409BB218460C37BD4680BC704700BF0D
:100DB000A46A200080B500AF4FF4DA720021044825
:100DC00005F0CCFC034802F019F800BF80BD00BF5D
:100DD000B04C00207514200080B584B000AF0346ED
:100DE0000A46FB711346BB7104F015F8FB79012B21
:100DF00002D0FB79002B19D1FA7928491346DB0080
:100E00009B1A9B000B4411331B7883F00103DBB268
:100E1000002B0BD0FA7921491346DB009B1A9B006B
:100E20000B44113301221A70FB7932E0FB79FF2B5E
:100E30002CD10223FB7326E0FA7B18491346DB0012
:100E40009B1A9B000B4411331B7883F00103DBB228
:100E5000002B15D0FA7B11491346DB009B1A9B002F
:100E60000B44113301221A70FA7B0C491346DB0044
:100E70009B1A9B000B441833BA791A70FB7B08E06D
:100E8000FB7B0133FB73FB7B0E2BD5D903F0B7FF44
:100E9000FF2318461037BD4680BD00BFB04C002070
:100EA00090B587B000AF396011461A460346FB7112
:100EB0000B46BB7113467B710023FB7511E0FA7D75
:100EC00091491346DB009B1A9B000B4411331B789E
:100ED000002B03D0FA7DFB799A4206D0FB7D0133CB
:100EE000FB75FB7D0E2BEAD900E000BFFB7D0F2BCD
:100EF00000F0068103F08FFFFA7983491346DB0087
:100F00009B1A9B000B4412337A791A70BB79002B21
:100F100002D0012B23D03FE0FA7939680B465B0100
:100F2000194479481346DB009B1A9B00034419605F
:100F30003A6813465B011A440323A3FB0213D21A37
:100F4000520813449B0FFA7998B26F491346DB009D
:100F50009B1A9B000B44083302461A801CE0FA7966
:100F600069491346DB009B1A9B000B443A681A60E0
:100F70003A680323A3FB0213D21A520813449B0FAF
:100F8000FA7998B260491346DB009B1A9B000B4428
:100F9000083302461A8000BFFA795B491346DB002A
:100FA0009B1A9B000B4408331B88002B15D1FA7940
:100FB00055491346DB009B1A9B000B441C6801F04B
:100FC00053FF0346FA79E1184F481346DB009B1A9A
:100FD0009B000344043319600EE001F045FF034613
:100FE000F97903F10042013A47480B46DB005B1AEE
:100FF0009B00034404331A60FA7943491346DB002B
:101000009B1A9B000B44103301221A70FA793E4957
:101010001346DB009B1A9B000B441433BA6A1A6018
:10102000394B93F8B03183F00103DBB2002B60D071
:101030000023FB7502E0FB7D0133FB75FA7D32492D
:101040001346DB009B1A9B000B4410331B7883F084
:101050000103DBB2002BEED1FA7D2B491346DB00F6
:101060009B1A9B000B4404331A68274BD3F8AC310E
:10107000D31A3B61FB7DBB75BB7D0133FB7523E060
:10108000FA7D21491346DB009B1A9B000B44103369
:101090001B78002B15D0FA7D1B491346DB009B1AE9
:1010A0009B000B4404331A68174BD3F8AC31D31AA6
:1010B000FB60FA683B699A4203D2FB683B61FB7DA7
:1010C000BB75FB7D0133FB75FB7D0E2BD8D9BA7D3B
:1010D0000D491346DB009B1A9B000B4404331B682D
:1010E000094AC2F8A831084BD3F8A831184601F0D4
:1010F00093FE054B012283F8A42103F080FE00E05B
:1011000000BF1C37BD4690BDB04C002080B588B0F4
:1011100000AFB9607A601A460346FB731346BB738F
:101120000023FB7711E0FA7F8F491346DB009B1AFF
:101130009B000B4411331B78002B03D0FA7FFB7B01
:101140009A4206D0FB7F0133FB77FB7F0E2BEAD957
:1011500000E000BFFB7F0F2B00F0028103F05BFE7D
:10116000FA7B81491346DB009B1A9B000B44123328
:1011700001221A70BB7B002B02D0012B23D03FE051
:10118000FA7BB9680B465B01194477481346DB00CC
:101190009B1A9B0003441960BA6813465B011A440A
:1011A0000323A3FB0213D21A520813449B0FFA7BAA
:1011B00098B26D491346DB009B1A9B000B44083321
:1011C00002461A801CE0FA7B67491346DB009B1A33
:1011D0009B000B44BA681A60BA680323A3FB02138E
:1011E000D21A520813449B0FFA7B98B25E491346F9
:1011F000DB009B1A9B000B44083302461A8000BF99
:10120000FA7B59491346DB009B1A9B000B440833B9
:101210001B88002B13D1FA7B53491346DB009B1A22
:101220009B000B441968FA7B7B6819444E481346AF
:10123000DB009B1A9B000344043319600CE0F97B2C
:101240007B6803F10042013A47480B46DB005B1A1A
:101250009B00034404331A60FA7B43491346DB00C6
:101260009B1A9B000B44103301221A70FA7B3E49F3
:101270001346DB009B1A9B000B441433BA6A1A60B6
:10128000394B93F8B03183F00103DBB2002B60D00F
:101290000023FB7702E0FB7F0133FB77FA7F3249C3
:1012A0001346DB009B1A9B000B4410331B7883F022
:1012B0000103DBB2002BEED1FA7F2B491346DB0092
:1012C0009B1A9B000B4404331A68274BD3F8AC31AC
:1012D000D31ABB61FB7FBB77BB7F0133FB7723E076
:1012E000FA7F21491346DB009B1A9B000B44103305
:1012F0001B78002B15D0FA7F1B491346DB009B1A85
:101300009B000B4404331A68174BD3F8AC31D31A43
:101310007B617A69BB699A4203D27B69BB61FB7FBF
:10132000BB77FB7F0133FB77FB7F0E2BD8D9BA7FCE
:101330000D491346DB009B1A9B000B4404331B68CA
:10134000094AC2F8A831084BD3F8A831184601F071
:1013500063FD054B012283F8A42103F050FD00E05A
:1013600000BF2037BD4680BDB04C002080B582B0A4
:1013700000AF03463960FB7103F04DFDFA79074970
:101380001346DB009B1A9B000B443A681A6003F07B
:1013900036FD00BF0837BD4680BD00BFB04C002001
:1013A00080B582B000AF0346FB7103F034FDFA79DB
:1013B0000C491346DB009B1A9B000B4410330022A0
:1013C0001A70FA7907491346DB009B1A9B000B44FD
:1013D000143300221A6003F012FD00BF0837BD4627
:1013E00080BD00BFB04C002080B582B000AF034686
:1013F000FB71FB790E2B0DD8FA791346DB009B1A93
:101400009B00074A13441C220021184605F0A6F948
:10141000012300E0002318460837BD4680BD00BF09
:10142000B04C002080B500AF01F01EFD0346184609
:1014300080BD80B400AF034BD3F8A8311846BD4639
:1014400080BC7047B04C002080B483B000AF03462E
:10145000FB71FA7906491346DB009B1A9B000B448B
:1014600010331B7818460C37BD4680BC704700BF50
:10147000B04C002090B587B002AF804B1B7C002B96
:1014800015D07E4BD3F8A8217C4B5B689A420ED1D5
:101490007A4B00221A74794B5B690020984701F05F
:1014A000E3FC03460F33184601F0B6FC0EE2734B23
:1014B0005A68724BD3F8A8319A4236D10023FB7395
:1014C00030E0FA7B6D491346DB009B1A9B000B440E
:1014D00010331B78002B22D0FB7B012B1FD0FB7B12
:1014E000002B1CD0FA7B65491346DB009B1A9B003E
:1014F0000B4404331A68614BD3F8A831D31A40F275
:101500008E2293420BD8FA7B5C4BD3F8A8115B4830
:101510001346DB009B1A9B00034404331960FB7BDA
:101520000133FB73FB7B0E2BCBD90023FB7357E1FD
:10153000FA7B52491346DB009B1A9B000B44103385
:101540001B78002B00F049814C4BD3F8A811FA7B93
:101550004A481346DB009B1A9B00034404331B6874
:10156000994240F03A81F97BFA7B44480B46DB0014
:101570005B1A9B0003440433196840481346DB00A0
:101580009B1A9B0003440C331960FB7B012B1ED17B
:101590003A4B012283F8B021FA7B38491346DB002D
:1015A0009B1A9B000B44103300221A70FA7B3349BC
:1015B0001346DB009B1A9B000B4414331B68FA7B19
:1015C000104698472D4B002283F8B02105E1FA7BA5
:1015D0002A491346DB009B1A9B000B4408331B88E7
:1015E000002B4DD1FA7B25491346DB009B1A9B004B
:1015F0000B44103300221A70FA7B20491346DB009B
:101600009B1A9B000B4414331868FA7B1B49134642
:10161000DB009B1A9B000B4418331B781946FFF71D
:1016200051FBFA7B15491346DB009B1A9B000B44C8
:1016300012331B78002B40F0D080104B012283F82E
:10164000B021FA7B0D491346DB009B1A9B000B442B
:101650001C68FA7B09491346DB009B1A9B000B446C
:1016600014331B68F87B0093002301222146FFF707
:1016700017FC024B002283F8B021AEE0B04C0020F2
:10168000FA7B94491346DB009B1A9B000B440833FA
:101690001B88013B98B28F491346DB009B1A9B00C5
:1016A0000B44083302461A80FA7B8A491346DB0052
:1016B0009B1A9B000B4408331B88002B78D1FA7BC4
:1016C00084491346DB009B1A9B000B441968FA7B84
:1016D00080481346DB009B1A9B0003440C331B68B5
:1016E0000B44FA7B23F000417A481346DB009B1A37
:1016F0009B00034404331960FA7B76491346DB00F0
:101700009B1A9B000B4404331A68724BD3F8A83120
:10171000D31A40F28E2293425FD8FA7B6D4913466A
:10172000DB009B1A9B000B44103300221A70FA7BDB
:1017300068491346DB009B1A9B000B44143318685E
:10174000FA7B64491346DB009B1A9B000B44183359
:101750001B781946FFF7B6FAFA7B5E491346DB00A1
:101760009B1A9B000B4412331B78002B35D1594B2D
:10177000012283F8B021FA7B56491346DB009B1AFD
:101780009B000B441C68FA7B52491346DB009B1AF2
:101790009B000B4414331B68F87B00930023012249
:1017A0002146FFF77DFB4B4B002283F8B02114E06C
:1017B000FA7B48491346DB009B1A9B000B440C3311
:1017C0001B68F97B03F10042013A42480B46DB00FB
:1017D0005B1A9B00034404331A60FB7B0133FB73E9
:1017E000FB7B0E2B7FF6A4AE3A4BD3F8A831394AD7
:1017F000C2F8AC310023FB7302E0FB7B0133FB73C7
:10180000FA7B34491346DB009B1A9B000B441033D0
:101810001B7883F00103DBB2002B02D0FB7B0E2B85
:10182000EBD9FB7B0E2B4DD8FA7B2A491346DB0004
:101830009B1A9B000B4404331A68264BD3F8AC3137
:10184000D31ABB60FB7BBB73BB7B0133FB7323E011
:10185000FA7B20491346DB009B1A9B000B44103394
:101860001B78002B15D0FA7B1A491346DB009B1A14
:101870009B000B4404331A68164BD3F8AC31D31ACF
:101880007B607A68BB689A4203D27B68BB60FB7B53
:10189000BB73FB7B0133FB73FB7B0E2BD8D9BA7B6D
:1018A0000C491346DB009B1A9B000B4404331B6856
:1018B000084AC2F8A831074BD3F8A831184601F0FE
:1018C000ABFA03E0034B002283F8A4211437BD4692
:1018D00090BD00BFB04C002080B500AFFEF7D6FC35
:1018E0000346184680BD80B500AF00F09DF800F0BB
:1018F000B7F800F014F800F054F800F06DFD00F0B7
:10190000C3FA00F0EFF801F065FA01F01BFB00F0FC
:1019100051FF00F017FC00F097F900BF80BD80B5C3
:1019200000AF1021094802F058FB0821074802F0D7
:1019300054FB00221021054802F024FB0822082154
:10194000024802F01FFB00BF80BD00BF00C00D4079
:1019500080B500AF00221021044802F013FB0822DA
:101960000821024802F00EFB00BF80BD00C00D4000
:1019700080B500AF00220821044802F003FB1022CA
:101980001021024802F0FEFA00BF80BD00C00D40E9
:1019900080B500AF002004F0EBFA04F017F900BFA7
:1019A00080BD80B500AF3221044802F072FD4FF6D1
:1019B000FF71024802F042FD00BF80BD00200340DD
:1019C00080B582B000AFFF21054802F0E2FE034679
:1019D0005B097B607B6818460837BD4680BD00BF49
:1019E0000020034080B584B000AF7860FF210A4832
:1019F00002F0CFFE03465B09FB607A68FB68D31AEE
:101A0000BB60BB68002B01DD002300E0012318460A
:101A10001037BD4680BD00BF0020034080B500AF39
:101A200004F0CBF800BF80BD80B500AFFF210848AF
:101A300002F0BDFAFF21074802F0B9FAFF2106487B
:101A400002F0B5FAFF21054802F0B1FA00BF80BDEF
:101A500000900D4000A00D4000B00D4000C00D40B2
:101A600080B582B000AF03F0D6F90346FB710022C7
:101A700040211A4802F00AF900228021174802F09A
:101A800005F901224021154803F020FD01228021A3
:101A9000124803F01BFD00220021012003F06AFF21
:101AA000002004F017F800BF0D4B1B6803F400235F
:101AB000002BF9D000F030F800F05EF800F08CF860
:101AC00000F0BAF8FB7983F00103DBB2002B01D000
:101AD00003F095F900BF0837BD4680BD00C00D403A
:101AE00004200D4080B500AF20210A4802F05FFAC3
:101AF00000222021074802F02FF9082002F07AFC8A
:101B00002021044802F0F6F92021024802F0AFF942
:101B100000BF80BD00C00D4080B500AF002004F0C4
:101B200073F9012004F070F9032004F06DF94FF40B
:101B3000807004F069F940F2011004F065F940F298
:101B4000012004F061F94FF4407004F05DF94FF4A6
:101B5000806004F059F940F2014004F055F9022088
:101B600004F02EF94FF4007004F02AF94FF4A0604D
:101B700004F026F900BF80BD80B500AF002004F05E
:101B80008BF9012004F088F9032004F085F94FF463
:101B9000807004F081F940F2011004F07DF940F208
:101BA000012004F079F94FF4407004F075F94FF416
:101BB000806004F071F940F2014004F06DF90220F8
:101BC00004F046F94FF4007004F042F94FF4A060BD
:101BD00004F03EF900BF80BD80B500AF002004F0E6
:101BE000A3F9012004F0A0F9022004F09DF90320DC
:101BF00004F09AF94FF4807004F096F940F2011065
:101C000004F092F94FF4007004F08EF940F20120D4
:101C100004F08AF94FF4407004F086F94FF48060C4
:101C200004F082F940F2014004F07EF94FF4A06024
:101C300004F07AF900BF80BD80B500AF202002F02B
:101C4000D9FB00BF80BD00BF80B500AF40F20140AE
:101C500004F070F840F2014004F0B2F80023184696
:101C600080BDF0B58FB008AFF8607A603B600B467E
:101C7000FB723B681B78002B14BF01230023FB750C
:101C800007F116031946B86B00F0D5F80346002B90
:101C900041D13B681B789BB2FA7A92B2B97D386821
:101CA000007804467868204497F83C60FD7D002465
:101CB000069497F834400594049003910292FA68D0
:101CC000019200937B683A6B3146284601F020FC74
:101CD0000346002B1FD100BF01F02EFD0346002B51
:101CE000F9D03B681B7899B23B681B781A467B6831
:101CF0001A4497F83C30184601F042FD0346002B89
:101D000009D13B681A7897F83C301344DAB23B6843
:101D10001A70002300E0012318461C37BD46F0BDB1
:101D2000B0B592B008AFF8607A603B600B46FB72CA
:101D30003B681B781A4697F84430D31A002BCCBF67
:101D40000123002387F8273007F126031946386C52
:101D500000F071F80346002B3DD13B681B789BB225
:101D6000FA7A92B297F8261097F8445097F82740DD
:101D70000020069097F83C00059007F114000490AD
:101D800003910292FA68019200937B68BA6B29462C
:101D9000204601F07FFD0346002B1CD100BF01F05F
:101DA00087FE0346002BF9D03B681B789AB207F1F7
:101DB000140397F84400796801F081FE0346002B74
:101DC00009D13B681A7897F84430D31ADAB23B68E5
:101DD0001A70002300E0012318462837BD46B0BD25
:101DE00080B586B002AF7860396007F10F031946FD
:101DF000386800F020F80346002B17D1FA7B002347
:101E0000009301237968786801F090FA0346002B6B
:101E10000CD100BF01F00EFB0346002BF9D001F0FE
:101E20002DFB0346002B01D1002300E001231846BF
:101E30001037BD4680BD90B583B000AF7860396083
:101E4000102279680F4804F057FC0346002B10D08D
:101E50000C4A7B681446186859689A68DB680FC496
:101E60000021084801F0A2F90346002B01D001230C
:101E700003E03B6800221A70002318460C37BD4669
:101E800090BD00BF8C42002080B500AF80210E487D
:101E900002F0A3F808210D4802F09FF80F210C482A
:101EA00002F09BF800228021074802F06BF8002224
:101EB0000821064802F066F800220F21044802F0CB
:101EC00061F800BF80BD00BF00900D4000B00D4024
:101ED00000A00D4080B500AF8021024800F0EAF874
:101EE00000BF80BD00900D4080B500AF0022802172
:101EF000024802F047F800BF80BD00BF00900D40CF
:101F000080B500AF80228021024802F03BF800BF7C
:101F100080BD00BF00900D4080B500AF0821024891
:101F200000F0C8F800BF80BD00A00D4080B500AF34
:101F300000220821024802F025F800BF80BD00BF42
:101F400000A00D4080B500AF08220821024802F031
:101F500019F800BF80BD00BF00A00D4080B500AFE4
:101F60000421024800F0A6F800BF80BD00A00D408B
:101F700080B500AF00220421024802F003F800BF40
:101F800080BD00BF00A00D4080B500AF0422042139
:101F9000024801F0F7FF00BF80BD00BF00A00D4068
:101FA00080B500AF0221024800F084F800BF80BD78
:101FB00000A00D4080B500AF00220221024801F0D0
:101FC000E1FF00BF80BD00BF00A00D4080B500AFA5
:101FD00002220221024801F0D5FF00BF80BD00BFF0
:101FE00000A00D4080B500AF0821024800F062F863
:101FF00000BF80BD00B00D4080B500AF00220821B9
:10200000024801F0BFFF00BF80BD00BF00B00D401F
:1020100080B500AF08220821024801F0B3FF00BFDD
:1020200080BD00BF00B00D4080B500AF0121024867
:1020300000F040F800BF80BD00A00D4080B500AFAB
:1020400000220121024801F09DFF00BF80BD00BFBA
:1020500000A00D4080B500AF01220121024801F02F
:1020600091FF00BF80BD00BF00A00D4080B400AF55
:1020700000BFBD4680BC704780B400AF00BFBD4606
:1020800080BC704780B400AF00BFBD4680BC7047C5
:1020900080B400AF00BFBD4680BC704780B400AFC5
:1020A00000BFBD4680BC704780B400AF00BFBD46D6
:1020B00080BC704780B584B000AF78600B46FB7081
:1020C000FB781946786801F04CFFF860FB68DA434A
:1020D000FB781340FB60FB68DAB2FB78194678683E
:1020E00001F050FF00BF1037BD4680BD80B485B001
:1020F00000AF7860114BFB6007E0FA68531EFB608D
:102100007B68591C796012781A70FB68B3F1281F3C
:10211000F3D20B4BFB6007E0FA68531EFB607B6851
:10212000591C796012781A70FB68044A9342F3D8FC
:1021300000BF1437BD4680BC704700BF2B0028008D
:102140002F00280080B582B000AF4FF4407003F03C
:1021500037FE4FF4407003F07BFE4FF4407003F005
:10216000E3FE4FF4407003F0E5FD2021154801F037
:102170004AFF154A2021134803F0CEF80C222021F3
:10218000104803F065F810210E4801F03CFF0F4A9B
:1021900010210C4803F0C0F80B221021094803F06D
:1021A00057F80123FB7103F043FC0246FB79194603
:1021B000104602F009FC02F047FC00BF0837BD469C
:1021C00080BD00BF00A00D4030410D402C410D40AE
:1021D00080B584B000AF03463960FB71144BFB60DF
:1021E000FB790121184602F063FD072002F09AFDF9
:1021F000FFF7E6FB0246FB681344FB6007E0F86864
:10220000FFF7F0FB0346002B01D000230BE002F0A8
:1022100065FD0346002BF2D102F0C0FD0346DAB2A1
:102220003B681A70012318461037BD4680BD00BFB9
:10223000801A060080B586B000AF0346B9607A60A8
:10224000FB731D4B7B61FB7B0121184602F030FDC7
:102250000B2002F067FDFFF7B3FB02467B691344D6
:102260007B6121E07869FFF7BDFB0346002B01D0BD
:102270007B681DE002F032FD0346002BF2D102F034
:102280008DFD0146BB685A1CBA60CAB21A707B68E1
:10229000013B7B607B68012B03D1052002F042FDEE
:1022A00002E0092002F03EFD7B68002BE2D17B6852
:1022B00018461837BD4680BD801A060080B584B028
:1022C00000AF03460A46FB711346BB71134BFB601C
:1022D000FB790021184602F0EBFCBB79184602F0AE
:1022E0004DFD072002F01EFDFFF76AFB0246FB686A
:1022F0001344FB6007E0F868FFF774FB0346002B0C
:1023000001D0002305E002F0E9FC0346002BF2D1E6
:10231000012318461037BD4680BD00BF801A060055
:1023200080B586B000AF0346B9607A60FB73294B75
:102330007B61FB7B0021184602F0BAFCBB685A1C8B
:10234000BA601B78184602F019FD7B68013B7B6080
:10235000032002F0E7FCFFF733FB02467B691344DE
:102360007B6107E07869FFF73DFB0346002B01D056
:102370007B682BE002F0B2FC0346002BF2D121E097
:10238000BB685A1CBA601B78184602F0F7FC7B68E1
:10239000012B03D1052002F0C5FC0BE0012002F067
:1023A000C1FC07E07869FFF71DFB0346002B01D055
:1023B0007B680BE002F092FC0346002BF2D17B68B5
:1023C000013B7B607B68002BDAD17B6818461837AD
:1023D000BD4680BD801A060080B500AFF0210548DB
:1023E00001F0FBFDF022F021024801F0CBFD00BF1F
:1023F00080BD00BF00B00D4080B500AF102000F0E0
:1024000097F900BF80BD80B500AF102000F0A2F9A1
:1024100000BF80BD80B500AF102000F0ADF900BF57
:1024200080BD80B582B000AF1021074801F099FD52
:1024300078607B68DBB21B11DBB203F00103DBB217
:1024400018460837BD4680BD00B00D4080B500AFCE
:10245000802000F06DF900BF80BD80B500AF802006
:1024600000F078F900BF80BD80B500AF802000F09B
:1024700083F900BF80BD80B582B000AF80210748DE
:1024800001F06FFD78607B68DBB25B11DBB203F0BB
:102490000403DBB218460837BD4680BD00B00D40CE
:1024A00080B500AF202000F043F900BF80BD80B5AB
:1024B00000AF202000F04EF900BF80BD80B500AF16
:1024C000202000F059F900BF80BD80B582B000AF78
:1024D0002021044801F045FD7860002318460837A4
:1024E000BD4680BD00B00D4080B500AF402000F07B
:1024F0001FF900BF80BD80B500AF402000F02AF971
:1025000000BF80BD80B500AF402000F035F900BFAE
:1025100080BD80B582B000AF4021074801F021FDA9
:1025200078607B68DBB29B11DBB203F00103DBB2A6
:1025300018460837BD4680BD00B00D4080B500AFDD
:10254000F02000F0F5F800BF80BD80B500AFF020AE
:1025500000F000F900BF80BD80B500AFF02000F0B2
:102560000BF900BF80BD80B582B000AFF02000F055
:10257000F1F80023FB711FE0102000F0FDF84FF68A
:10258000FF73BB8004E0BB889BB2013B9BB2BB8066
:10259000BB889BB2002BF6D14FF6FF73BB8004E0E3
:1025A000BB889BB2013B9BB2BB80BB889BB2002B1C
:1025B000F6D1FB790133FB71FB794F2BDCD900BFDE
:1025C0000837BD4680BD80B582B000AFF02000F076
:1025D000C1F80023FB714EE0102000F0A9F84FF67F
:1025E000FF73BB8007E0102000F0B4F8BB889BB2FB
:1025F000013B9BB2BB80BB889BB2002BF3D1202058
:1026000000F096F84FF6FF73BB8004E0BB889BB2E6
:10261000013B9BB2BB80BB889BB2002BF6D1202034
:1026200000F098F8402000F083F84FF6FF73BB806D
:1026300004E0BB889BB2013B9BB2BB80BB889BB2D2
:10264000002BF6D1402000F085F8802000F070F8D3
:102650004FF6FF73BB8004E0BB889BB2013B9BB28B
:10266000BB80BB889BB2002BF6D1F02000F072F843
:10267000FB790133FB71FB79092BADD900BF08371A
:10268000BD4680BD80B582B000AFF02000F062F89A
:102690000023FB7145E0102000F04AF84FF6FF736D
:1026A000BB8004E0BB889BB2013B9BB2BB80BB8874
:1026B0009BB2002BF6D1202000F03AF84FF6FF73C2
:1026C000BB8004E0BB889BB2013B9BB2BB80BB8854
:1026D0009BB2002BF6D1402000F02AF84FF6FF7392
:1026E000BB8004E0BB889BB2013B9BB2BB80BB8834
:1026F0009BB2002BF6D1802000F01AF84FF6FF7342
:10270000BB8004E0BB889BB2013B9BB2BB80BB8813
:102710009BB2002BF6D1F02000F01CF8FB790133BE
:10272000FB71FB79092BB6D900BF0837BD4680BDC8
:1027300080B582B000AF0346FB71FB7900221946D9
:10274000034801F01FFC00BF0837BD4680BD00BF35
:1027500000B00D4080B582B000AF0346FB71FA793E
:10276000FB791946034801F00DFC00BF0837BD4650
:1027700080BD00BF00B00D4080B584B000AF0346FF
:10278000FB71FB7919460A4801F0EBFBF860FB6826
:10279000DA43FB791340FB60FB68DAB2FB79194638
:1027A000034801F0EFFB00BF1037BD4680BD00BFFE
:1027B00000B00D4080B500AF0C220021354803F079
:1027C000CDFF344B00221A72334BED221A60324B8C
:1027D000ED221A60304BEE221A602F4BEE221A6067
:1027E00000F03EFA00F020FA2C4B14221A602C4B19
:1027F0003F221A602B4B55221A602B4B85221A6000
:102800002A4B01221A602A4B15221A60294B1022EA
:102810001A60294B0E221A60284B03221A60284B9B
:10282000F8221A60274B09221A60214B15221A60E0
:1028300004230B221A60244BFF221A60234B4022F0
:102840001A60234B1B68224A23F001031360214BBB
:1028500000221A60204B7F221A60204BD5221A607A
:102860001F4B0B221A601F499D2002F0E0FA1E49FF
:102870009E2002F0DCFA9D2002F0A4FB1B4B7F227D
:102880001A609E2002F09EFB024B01221A7200BFCA
:1028900080BD00BF644E002038880840A4860840F0
:1028A000AC860840B0860840A0860840B88608403C
:1028B000C8860840D4860840D8860840DC86084090
:1028C00058860840E88708409487084024860840D6
:1028D0000086084008860840508608404086084028
:1028E0003C860840AF2C2000A12D20009486084093
:1028F00080B483B000AF7860034A7B68136000BF88
:102900000C37BD4680BC7047644E002080B483B055
:1029100000AF7860034A7B68536000BF0C37BD4648
:1029200080BC7047644E002080B500AF00BF0E4BE6
:102930001B6803F00203002BF9D10C4BED221A6047
:102940000A4BED221A60094BEE221A60074BEE2269
:102950001A60074B1B68002B02D0044BEF221A6051
:10296000FFF728FF00BF80BD4C860840388808402C
:102970002C86084080B582B000AF0346FB710E4B39
:1029800002221A7200F06CF9FB790A2B02D9FB794A
:102990001A2B00D9FEE7FB79A3F10B0213469B002B
:1029A000134403F10B02054B1A60034B03221A7206
:1029B00000BF0837BD4680BD644E00203C860840FD
:1029C00080B400AF00BFBD4680BC704780B500AF8B
:1029D000074B0D221A7200F043F9FFF72FFBFFF7A8
:1029E00066FD00F021F9024B01221A7200BF80BD82
:1029F000644E002080B485B000AF78600B467B80C9
:102A00000023FB73154B04221A7200BF144B1B6882
:102A100003F00203002BF9D1124BEE221A60114B86
:102A2000EE221A60104A7B8813600023FB7308E0D3
:102A3000FB7B7A6813441A780B4B1A60FB7B0133DB
:102A4000FB73FB7B9BB27A889A42F1D8034B052239
:102A50001A7200BF1437BD4680BC7047644E002018
:102A60004C860840388808402888084080B500AF68
:102A7000054B06221A72FFF7EDFAFFF711FD024B24
:102A800007221A7200BF80BD644E002080B582B05C
:102A900000AF0F4B08221A7200F0B0F800BF0D4BC8
:102AA0001B6803F00203002BF9D10B4BE9221A60DB
:102AB00000237B6002E07B6801337B60054B1B6871
:102AC00003F00203002BF6D000BF0837BD4680BDDF
:102AD000644E00204C8608403888084080B500AF1E
:102AE000054B09221A72FFF7B5FAFFF7D9FC024B22
:102AF0000A221A7200BF80BD644E002080B500AF6C
:102B0000094BED221A60084BED221A6000F076F8AE
:102B1000054BE3221A6000BF044B1B6803F001035E
:102B2000002BF9D000BF80BD388808404C86084093
:102B300080B487B000AFF860B9603B601346FB71AA
:102B40000023BB752B4B1B68BB7597F91630002B08
:102B500006DA294BED221A60274BED221A6044E079
:102B6000BB7D042B06D8244BED221A60224BED22AC
:102B70001A603AE0BA7DFB799A4206D91E4BED22E3
:102B80001A601D4BED221A602FE00023FB7509E04F
:102B9000184B1968FB7DFA681344CAB21A70FB7DA2
:102BA0000133FB75FA7DBB7D023B9A42F0DB114B92
:102BB0001B68DBB2493BDBB25AB23B681A700D4B63
:102BC0001B687B757B7D03F08003002B14BF012302
:102BD0000023DAB27B6A1A70BB68BA7D1A70064BA2
:102BE000ED221A60044BED221A601C37BD4680BCF2
:102BF000704700BF288808403888084080B400AF7C
:102C0000074B1B68064A43F007031360054B1B681C
:102C1000044A43F00203136000BFBD4680BC704706
:102C20008C8608409086084080B400AF044B002298
:102C30001A60044B00221A6000BFBD4680BC70477A
:102C40008C8608409086084080B400AF034BE32296
:102C50001A6000BFBD4680BC704700BF388808407E
:102C600080B400AF00BF0A4B1B6803F00203002BC7
:102C7000F9D1084B1B68002B06D0074BEF221A60D6
:102C8000064B6FF044021A6000BFBD4680BC70471F
:102C90004C8608402C860840388808403488084014
:102CA00080B400AF00231846BD4680BC704780B595
:102CB00082B000AFFFF7ACF900F0D6F803463B60F6
:102CC000344B1B68FB71344B1B68BB719D2002F0B9
:102CD0004BFA304B00221A602F4B00221A60FB790E
:102CE00003F00203002B0FD02C4B0B221A722B4B3C
:102CF0001B68002B07D0294B1B683A681046984781
:102D0000FFF77AF942E0FEE7FB7903F04003002B7E
:102D10000FD0224B0C221A72204B5B68002B07D07D
:102D20001E4B5B683A6810469847FFF765F92DE03F
:102D3000FEE7FB7903F00403002B0FD0174B0C22A6
:102D40001A72164B5B68002B07D0144B5B683A680D
:102D500010469847FFF750F918E0FEE7BB7903F0FB
:102D60000203002B0FD00D4B0C221A720B4B5B6829
:102D7000002B07D0094B5B683A6810469847FFF76D
:102D80003BF903E0FEE7FFF737F900BF0837BD4620
:102D900080BD00BF3488084030880840644E002061
:102DA00080B483B000AF0A4B1B68FB71084B1A68F4
:102DB000FB79134003F00203002B03D0044B6FF0A8
:102DC00002021A6000BF0C37BD4680BC704700BFCE
:102DD0009486084080B500AF04220021054803F026
:102DE000BDFC0549A12002F022F8A12002F034F92F
:102DF00000BF80BD704E0020932E200080B483B0B1
:102E000000AF7860034A7B68136000BF0C37BD4693
:102E100080BC7047704E002080B582B000AF7860F3
:102E2000A12002F0CFF802F0E8FC02467B68D31A3A
:102E30000C4A934203D8A12002F058F90DE002F0A9
:102E4000DCFC02467B689B1A042B03D8A12002F00D
:102E50004DF902E0786802F013FD00BF0837BD4667
:102E600080BD00BFFEFFFF0080B500AF02F0C5FCD3
:102E70000346184680BD80B500AFA12002F0A2F83D
:102E800000BF80BD80B500AFA12002F0E5F800BF13
:102E900080BD80B500AFFFF7BBF8084B1B68002B67
:102EA00007D0A12002F060F9044B1B689847FFF798
:102EB000A3F8FFF7A1F800BF80BD00BF704E00204F
:102EC00080B500AF00F007F8FEE780B400AFFEE782
:102ED00080B400AFFEE780B582B000AF114BFF2297
:102EE0001A60114B114A1A60114B7B60114B3B6009
:102EF00007E07A68131D7B603B68191D3960126812
:102F00001A603B680C4A9342F3D30C480C494FF0CB
:102F100000028842B8BF40F8042BFADBFEF7DCFC65
:102F2000FEE700BFB4200D4008ED00E000002000E7
:102F3000D0702000004000208C4200208C420020F5
:102F4000804E002080B500AF0C2200211E4803F007
:102F500005FC1E4803F020F941F6FF711B4803F001
:102F6000A4FA0121194803F019FB00220221184894
:102F700002F06EF90221164801F09DF8154A012170
:102F8000134802F0C9F90121114801F07EF802F05E
:102F9000BBFD014660234FF4E1320C4803F06AF8B0
:102FA0000A4803F0DEF8094803F02AF9102107481F
:102FB00003F067F90849054803F031FA152002F0DB
:102FC00001F800BF80BD00BF744E002000C000406B
:102FD00000900D4000410D40ED30200080B483B0E2
:102FE00000AF78603960054A7B681360034A3B682C
:102FF000536000BF0C37BD4680BC7047744E002044
:1030000080B500AF7021024803F03CFA00BF80BDDC
:1030100000C0004080B500AF7021024803F045FABF
:1030200000BF80BD00C0004080B500AF5021024805
:1030300003F063FA00BF80BD00C0004080B500AF60
:103040002021024803F059FA00BF80BD00C00040B3
:1030500080B582B000AF0346FB71FB79112B05D020
:10306000FB79132B02D0FB79122B0AD1094B0122D9
:103070001A72084AFB7953721221074803F08AF941
:1030800004E0FB791946044803F084F900BF0837CF
:10309000BD4680BD744E002000C0004080B582B0A7
:1030A00000AF054803F04BF978607B68DBB2184647
:1030B0000837BD4680BD00BF00C0004080B582B06B
:1030C00000AF0346FB71FB79002B04D011210648A9
:1030D00003F060F903E01321034803F05BF900BF3C
:1030E0000837BD4680BD00BF00C0004080B582B03B
:1030F00000AF0121124803F0EBF97860152002F0CF
:1031000033F87B6803F02003002B05D0FEF7CCFFDB
:1031100000F018F8FEF7C2FF7B6803F01003002BE5
:1031200004D17B6803F04003002B05D0FEF7AAFF13
:1031300000F02CF8FEF7A0FF00BF0837BD4680BDA9
:1031400000C0004080B500AFFFF778FF0D4B1B7A41
:10315000002B0CD00B4B00221A720A4B5B7A83F0C7
:103160001003DBB21946084803F014F906E0054BDA
:103170001B68002B02D0034B1B689847002318469E
:1031800080BD00BF744E002000C0004080B500AF7D
:10319000FFF74AFF044B5B68002B02D0024B5B68D1
:1031A00098470023184680BD744E002080B584B037
:1031B00000AF78600B46FB704F4BBB604F4B01225A
:1031C0001A700023FB730AE0FB7B7A681A44FB7BCE
:1031D000B9680B4412781A70FB7B0133FB73FB7BDD
:1031E0000F2BF1D99F2001F037FF454B1B68444A54
:1031F00043F001031360434B1B68424A43F003034F
:103200001360414B1B68404A23F0010313603E4B9F
:103210001B683D4A43F0010313603C4B1B683B4A6B
:1032200043F0030313603A4B1B68394A03F003036E
:103230001360374B1B68364A43F001031360FB7879
:1032400001229A40334B1A60334B1B68324A43F0D9
:1032500001031360314ABB681360314B10221A60BE
:1032600000BF304B1B6803F00103002BF8D02D4B3F
:103270001B68002B07DA254B1B68244A43F00043E8
:103280001360032333E0274B1B6803F08043002BBC
:1032900007D01E4B1B681D4A43F080431360022376
:1032A00025E01A4B1B68194A43F003031360164BC1
:1032B00000221A601C4B1B6803F00703012B04D08B
:1032C0000E4B00221A70022311E00023FB7307E06B
:1032D000FB7BBA68134400221A70FB7B0133FB733B
:1032E000FB7B0F2BF4D9054B00221A7000231846E4
:1032F0001037BD4680BD00BFA04A00209C4A002078
:1033000080B7084084B7084000B7084088B7084035
:1033100008B4084000B4084000B0084004B00840B9
:103320000CB0084090B7084004B4084080B584B0A1
:1033300000AFF860B96011461A460B46FB711346A0
:10334000BB712C4B02221A702B4B01221A602B4BA3
:1033500001221A603B7E002B05D09F2001F004FF64
:103360009F2001F02FFE264B02221A60254B1B687E
:10337000244A43F003031360234AFB79136000BF20
:10338000214B1B68002BFADB204B1B6803F000531A
:10339000002B07D01B4B1B681A4A43F000531360E5
:1033A000012322E0BB79002B03D0194B0C221A60B9
:1033B00002E0174B08221A60164B10221A60164BB7
:1033C00000221A60154B01221A60154AFB6813602F
:1033D000144B10221A60144B01221A60134ABB6866
:1033E0001360134B10221A60002318461037BD4695
:1033F00080BD00BF9C4A002080B7084084B70840C9
:1034000000B7084088B708400CB4084090B708409F
:1034100050B5084054B5084058B5084000B00840C1
:1034200004B008400CB0084020B0084024B0084068
:103430002CB0084080B400AF0F4B1B78DBB203F018
:103440000103002B0FD10C4B1B780B4B1B78DBB20D
:1034500003F08043002B06D1074B1B78DBB203F04F
:103460000053002B01D0012300E00023DBB21846FB
:10347000BD4680BC704700BF90B7084080B500AF24
:103480001E4B1B68002B07DA1D4B1B681C4A43F0C0
:103490000043136003232EE0184B1B6803F08043A6
:1034A000002B07D0164B1B68154A43F0804313606E
:1034B000022320E0114B1B6803F00053002B07D0C0
:1034C0000F4B1B680E4A43F000531360012312E0B8
:1034D0009F2001F0C1FD0A4B1B68094A43F003031A
:1034E0001360084B00221A60074B00221A60074B3A
:1034F00000221A700023184680BD00BF90B7084014
:1035000088B7084000B7084050B508409C4A0020E2
:1035100080B58AB000AFBA607B600346FB730B4690
:10352000BB73704B03221A709F2001F095FD6E4B08
:1035300001221A606D4B03221A606D4B02221A6041
:103540006C4B1B686B4A43F0030313606A4A97F89D
:103550003C30136000BF684B1B68002BFADB674BE5
:103560001B6803F00053002B07D0624B1B68614AB5
:1035700043F0005313600123AFE097F84430013B60
:10358000DBB23B74002387F8233011E097F8233037
:10359000BA681A4497F823300133127807F12801EA
:1035A0000B4403F8182C97F82330013387F82330A5
:1035B00097F823300C2BE9D997F84430032B01D12D
:1035C00000237B770023BB770023FB7707F11003F1
:1035D0004B4A1B6813604B4A7B6913604A4ABB69BC
:1035E00013604A4AFB69136097F84430013BDB04DF
:1035F0007B62BB7B012B07D9BB7B023B5B109B052E
:103600001A467B6A13437B627B6A43F480237B62A6
:103610007B6A43F008037B627B6A43F004037B62AE
:103620007B6A43F040037B627B6A43F000537B621A
:103630007B6A43F4C0737B62354A7B6A1360354A08
:103640003B8E1360344B00221A60344A3B8F136068
:103650003B8F002B1BD0324B01221A60314A7B6B0F
:103660001360314A3B8F136000BF244B1B6803F08B
:103670000203002BF8D0214B1B68002B07DA1D4BEF
:103680001B681C4A43F000431360032325E0194BD9
:1036900003221A6097F84830002B05D09F2001F0D4
:1036A00063FD9F2001F08EFC104B01221A60FB7B12
:1036B000002B11D01A4B01221A601A4A7B68136042
:1036C000194A3B8E1360194B01221A60184A7B6815
:1036D0001360184A3B8E1360002318462837BD46F6
:1036E00080BD00BF9C4A002080B7084084B70840D6
:1036F00000B7084088B708400CB4084090B70840AD
:1037000040B5084044B5084048B508404CB50840AD
:1037100050B5084054B5084058B508405CB508405D
:1037200000B0084004B008400CB0084020B0084089
:1037300024B008402CB0084080B400AF0F4B1B7879
:10374000DBB203F00103002B0FD10C4B1B780B4BAA
:103750001B78DBB203F08043002B06D1074B1B78AC
:10376000DBB203F00053002B01D0012300E0002363
:10377000DBB21846BD4680BC704700BF90B708401A
:1037800080B588B000AF03463A60FB710B46BB8042
:10379000374B1B68002B07DA364B1B68354A43F062
:1037A0000043136003235FE0314B1B6803F0804349
:1037B000002B07D02F4B1B682E4A43F08043136029
:1037C000022351E02A4B1B6803F00053002B07D063
:1037D000284B1B68274A43F000531360012343E042
:1037E0009F2001F039FC244B00221A6000BF234BBC
:1037F0001B6803F08043B3F1804FF7D1204A07F1F3
:103800000C0312681A601F4A07F10C030433126894
:103810001A601D4A07F10C03083312681A601B4A2C
:1038200007F10C030C3312681A60124B1B68114A23
:1038300043F0030313600023FB770DE0FA7FFB7F67
:1038400039680B4407F120010A4412F8142CD2B253
:103850001A70FB7F0133FB77FA7FFB799A42EDD335
:103860000B4B00221A70002318462037BD4680BD3E
:1038700090B7084088B7084000B7084050B50840E6
:1038800070B5084074B5084078B508407CB508406C
:103890009C4A002080B58AB000AFBA607B600346C6
:1038A000FB730B46BB73BB7B9BB23A8ED31A3B8434
:1038B0006A4B03221A706A4B01221A60694B032279
:1038C0001A60694B02221A60684B03221A60684A28
:1038D00097F83C30136000BF654B1B68002BFADB88
:1038E000644B1B6803F00053002B07D05F4B1B6831
:1038F0005E4A43F0005313600123ABE097F8443075
:10390000013BDBB23B74002387F8233011E097F8CA
:103910002330BA681A4497F823300133127807F13C
:1039200028010B4403F8182C97F82330013387F84B
:10393000233097F823300C2BE9D997F84430032B28
:1039400001D100237B770023BB770023FB7707F1AE
:103950001003494A1B681360484A7B691360484A50
:10396000BB691360474AFB69136097F84430013B19
:10397000DB047B62BB7B012B07D9BB7B023B5B106B
:103980009B051A467B6A13437B627B6A43F4802360
:103990007B627B6A43F008037B627B6A43F04003EF
:1039A0007B627B6A43F000537B627B6A43F4C073A3
:1039B0007B62354A7B6A1360344A3B8C1360344B1C
:1039C00000221A60334A3B8F13603B8F002B1BD0C1
:1039D000314B01221A60314A7B6B1360304A3B8FB6
:1039E000136000BF234B1B6803F00203002BF8D0C9
:1039F000204B1B68002B07DA1C4B1B681B4A43F04B
:103A000000431360032325E0184B03221A6097F844
:103A10004830002B05D09F2001F0A6FB9F2001F02D
:103A2000D1FA104B01221A60FB7B002B11D01A4BEC
:103A300001221A60194A7B681360194A3B8C136093
:103A4000184B01221A60184A7B681360174A3B8C96
:103A50001360002318462837BD4680BD9C4A0020CD
:103A600080B7084084B7084000B7084088B70840CE
:103A70000CB4084090B7084040B5084044B5084031
:103A800048B508404CB5084050B5084054B508400A
:103A900058B508405CB5084000B0084004B0084084
:103AA0000CB0084020B0084024B008402CB00840BA
:103AB00080B500AFFFF740FE0346184680BD80B5D5
:103AC0008AB000AFB9607B600346FB731346BB81CD
:103AD000FB7B9BB2BA89D31ABB844A4B1B68002B71
:103AE00007DA494B1B68484A43F00043136003233D
:103AF00084E0444B1B6803F08043002B07D0424B0B
:103B00001B68414A43F080431360022376E03D4B3B
:103B10001B6803F00053002B07D03B4B1B683A4A4D
:103B200043F000531360012368E09F2001F094FAF2
:103B3000364B00221A6000BF354B1B6803F08043F0
:103B4000B3F1804FF7D1334A07F1140312681A60BA
:103B5000314A07F11403043312681A602F4A07F13F
:103B60001403083312681A602D4A07F114030C334A
:103B700012681A60244B1B68234A43F00303136046
:103B8000002387F8273011E097F8272097F827308F
:103B900079680B4407F128010A4412F8142CD2B2B8
:103BA0001A7097F82730013387F8273097F82720C5
:103BB000FB7B9A42E8D3002387F8263015E097F87C
:103BC00026307A6813441A78B98C97F826300B445B
:103BD0001946BB680B441B789A4201D004230DE0C0
:103BE00097F82630013387F8263097F82620FB7B9C
:103BF0009A42E4D30B4B00221A7000231846283750
:103C0000BD4680BD90B7084088B7084000B708405F
:103C100050B5084070B5084074B5084078B5084004
:103C20007CB508409C4A002080B485B000AF786025
:103C30007B68124A934210D0104A934203D8104A2C
:103C4000934207D012E00F4A934209D00E4A9342A2
:103C500009D00BE01023FB600AE01123FB6007E0B2
:103C60001223FB6004E01323FB6001E0002300E06B
:103C7000FB6818461437BD4680BC704700A00D4055
:103C800000900D4000B00D4000C00D4080B485B0E4
:103C900000AFF8600B467A60FB727B6803F00103AB
:103CA000002B06D0FB6803F580631A68FB7A134388
:103CB00006E0FB6803F580631B68FA7AD243134081
:103CC000FA6802F5806213607B6803F00203002B40
:103CD00006D0FB6803F584631A68FB7A134306E099
:103CE000FB6803F584631B68FA7AD2431340FA68D1
:103CF00002F58462136000BF1437BD4680BC704774
:103D000080B485B000AF78600B46FB70FB78012271
:103D100002FA03F3FB707B6803F580631B68FB60AA
:103D20007B6803F584631B68BB60FA78FB6813400B
:103D3000002B14BF01230023DBB21946FA78BB68BD
:103D40001340002B01D0022300E000230B43184650
:103D50001437BD4680BC704780B485B000AFF860B2
:103D60000B467A60FB727B6803F00103002B06D0E0
:103D7000FB6803F581631A68FB7A134306E0FB686E
:103D800003F581631B68FA7AD2431340FA6802F59F
:103D9000816213607B6803F00203002B06D0FB688E
:103DA00003F204431A68FB7A134306E0FB6803F24C
:103DB00004431B68FA7AD2431340FA6802F20442C1
:103DC00013607B6803F00403002B06D0FB6803F24A
:103DD0000C431A68FB7A134306E0FB6803F20C43BA
:103DE0001B68FA7AD2431340FA6802F20C4213605D
:103DF00000BF1437BD4680BC704780B487B000AFA9
:103E000078600B46FB70FB78012202FA03F3FB702B
:103E10007B6803F581631B687B617B6803F2044365
:103E20001B683B617B6803F20C431B68FB60FA78FC
:103E30007B691340002B14BF01230023DBB219461A
:103E4000FA783B691340002B01D0022300E00023E5
:103E50000B43F978FA680A40002A01D0042200E0F6
:103E60000022134318461C37BD4680BC704780B4FF
:103E700083B000AF78600B46FB707B6803F582630C
:103E80001A68FB78796801F5826113430B6000BF03
:103E90000C37BD4680BC704780B483B000AF7860FB
:103EA0000B46FB707B6803F582631B68FA78D2438C
:103EB00011467A6802F582620B40136000BF0C372E
:103EC000BD4680BC704780B483B000AF78600B46BD
:103ED000FB70FB78002B04D07B6803F583631B68C1
:103EE00003E07B6803F214431B6818460C37BD4699
:103EF00080BC704780B483B000AF78600B46FB7025
:103F00007B6803F21C431A46FB78136000BF0C3732
:103F1000BD4680BC704780B582B000AF7860396024
:103F20007868FFF781FE78603968786800F07FFF75
:103F3000786801F047F800BF0837BD4680BD80B5FE
:103F400082B000AF78607868FFF76EFE78607868BE
:103F500001F082F8786800F09BFF00BF0837BD468B
:103F600080BD80B483B000AF78600B46FB70FB78F7
:103F70009B001A467B6813441B6818460C37BD46E5
:103F800080BC704780B483B000AF78600B46FB7094
:103F90001346BB70FB789B001A467B6813441A4695
:103FA000BB78136000BF0C37BD4680BC704780B53E
:103FB00082B000AF78600B46FB70FB780022194698
:103FC0007868FFF763FEFB7800221946786801F0F5
:103FD0007DFA00BF0837BD4680BD80B582B000AF16
:103FE00078600B46FB70FB78012219467868FFF772
:103FF0004DFEFB7800221946786801F067FA00BF91
:104000000837BD4680BD80B582B000AF78600B46F2
:10401000FB70FB78022219467868FFF737FEFB78C1
:1040200000221946786801F051FA00BF0837BD46F2
:1040300080BD80B582B000AF78600B46FB70FB7826
:10404000022219467868FFF721FEFB780022194604
:10405000786801F03BFA00BF0837BD4680BD80B5E7
:1040600082B000AF78600B46FB70FB7802221946E5
:104070007868FFF70BFEFB7800221946786801F09C
:1040800025FA00BF0837BD4680BD80B582B000AFBD
:1040900078600B46FB70FB78022219467868FFF7C0
:1040A000F5FDFB7800221946786801F00FFA00BF91
:1040B0000837BD4680BD80B582B000AF78600B4642
:1040C000FB70FB78022219467868FFF7DFFDFB786A
:1040D00008221946786801F0F9F900BF0837BD4693
:1040E00080BD80B487B000AFF8600B467A60FB7289
:1040F00000237B61FB681D4A934201D100237B6151
:10410000FB681B4A934201D108237B61FB68194A73
:10411000934201D110237B61FB68174A934201D17E
:1041200018237B61FA7A7B6902FA03F33B617B68AF
:10413000012B0BD1FB6803F204731A68FB6803F2CE
:10414000047319463B6913430B600AE0FB6803F2F2
:1041500004731A683B69DB43F96801F20471134088
:104160000B6000BF1C37BD4680BC704700900D40FF
:1041700000A00D4000B00D4000C00D4080B485B0DF
:1041800000AF78600B46FB700023FB607B68174A2A
:10419000934201D10023FB607B68154A934201D111
:1041A0000823FB607B68134A934201D11023FB6014
:1041B0007B68114A934201D11823FB60FA78FB68AF
:1041C0001344012202FA03F3BB607B6803F2047319
:1041D0001A68BB681340002B01D0012300E00023C4
:1041E00018461437BD4680BC704700BF00900D4094
:1041F00000A00D4000B00D4000C00D4080B485B05F
:1042000000AF78600B46FB700023FB607B68164AAA
:10421000934201D10023FB607B68144A934201D191
:104220000823FB607B68124A934201D11023FB6094
:104230007B68104A934201D11823FB60FA78FB682F
:1042400002FA03F3BB607B6803F5E2631A687B68DC
:1042500003F5E2631946BB6813430B6000BF1437D4
:10426000BD4680BC704700BF00900D4000A00D40CF
:1042700000B00D4000C00D4080B485B000AF786044
:104280000B46FB700023FB607B68164A934201D10A
:104290000023FB607B68144A934201D10823FB6032
:1042A0007B68124A934201D11023FB607B68104A5D
:1042B000934201D11823FB60FA78FB6802FA03F3FA
:1042C000BB607B6803F5E2631A68BB68DB4379680F
:1042D00001F5E26113400B6000BF1437BD4680BC9E
:1042E000704700BF00900D4000A00D4000B00D4091
:1042F00000C00D4080B485B000AF78600B46FB7005
:104300000023FB607B68184A934201D10023FB60C5
:104310007B68164A934201D10823FB607B68144AEC
:10432000934201D11023FB607B68124A934201D172
:104330001823FB60FB78002B08D07B6803F5E36350
:104340001A68FB6822FA03F3DBB207E07B6803F527
:10435000E4631A68FB6822FA03F3DBB218461437E9
:10436000BD4680BC704700BF00900D4000A00D40CE
:1043700000B00D4000C00D4080B485B000AF786043
:104380000B46FB700023FB607B68164A934201D109
:104390000023FB607B68144A934201D10823FB6031
:1043A0007B68124A934201D11023FB607B68104A5C
:1043B000934201D11823FB60FA78FB6802FA03F3F9
:1043C000BB607B6803F5E3631A687B6803F5E3630E
:1043D0001946BB6813430B6000BF1437BD4680BC51
:1043E000704700BF00900D4000A00D4000B00D4090
:1043F00000C00D4080B483B000AF7860054B1A68F0
:1044000004497B6813430B6000BF0C37BD4680BC7A
:10441000704700BF94200D4080B483B000AF786037
:10442000054B1A687B68DB43034913400B6000BFF0
:104430000C37BD4680BC704794200D4080B483B0DB
:1044400000AF786039607B680C331A68396840F2D5
:1044500001130B4079680C3113430B6000BF0C371C
:10446000BD4680BC704780B483B000AF78603960CF
:104470007B680C331A68396840F201130B40DB4348
:1044800079680C3113400B6000BF0C37BD4680BC0F
:10449000704780B483B000AF786039607B680C33BC
:1044A0001B687A680C3223F4807323F001031360D5
:1044B0007B683A68120E1A603B68DBB27A68043295
:1044C00043F4007313603B681B0ADBB27A6808325E
:1044D00043F40073136000BF0C37BD4680BC7047C7
:1044E00080B485B000AFF860B9601346FB71BA685C
:1044F00044F240031340BB60FB79002B05D0FB68FE
:104500000C331A68BB68134305E0FB680C331A6868
:10451000BB68DB431340FA680C32136000BF1437EA
:10452000BD4680BC704780B485B000AFF860B9600C
:104530001346FB71BA6842F220031340BB60FB795B
:10454000002B05D0FB680C331A68BB68134305E0E9
:10455000FB680C331A68BB68DB431340FA680C3203
:10456000136000BF1437BD4680BC704780B485B06F
:1045700000AFF860B9607A60BA6840F60C43134047
:10458000BB60FB680C331A68BB68DB431A40796870
:10459000BB680B40F9680C3113430B6000BF143744
:1045A000BD4680BC704780B485B000AFF860B9608C
:1045B0001346FB71BA6840F202231340BB60FB79DB
:1045C000002B05D0FB680C331A68BB68134305E069
:1045D000FB680C331A68BB68DB431340FA680C3283
:1045E000136000BF1437BD4680BC704780B485B0EF
:1045F00000AFF860B9601346FB71BB68DBB2002BFB
:1046000013D0FB79002B08D0FB6804331B68FA68D1
:10461000043243F04003136007E0FB6804331B6877
:10462000FA68043223F040031360BB6803F47F434D
:10463000002B13D0FB79002B08D0FB6808331B68D4
:10464000FA68083243F04003136007E0FB68083360
:104650001B68FA68083223F04003136000BF143768
:10466000BD4680BC704780B485B000AFF860B960CB
:104670007A60BB68DBB2002B04D0FB6838331A4683
:104680007B681360BB6803F47F43002B04D0FB6896
:104690003C331A467B68136000BF1437BD4680BCAC
:1046A000704780B483B000AF786039603B68FF2BFF
:1046B00003D17B6838331B6802E07B683C331B689E
:1046C00018460C37BD4680BC704780B485B000AF3B
:1046D000F860B9607A60BB68DBB2002B04D0FB687D
:1046E00040331A467B681360BB6803F47F43002B9A
:1046F00004D0FB6844331A467B68136000BF14374C
:10470000BD4680BC704780B483B000AF786039602C
:104710003B68FF2B03D17B6840331B6802E07B685A
:1047200044331B6818460C37BD4680BC704780B4C4
:1047300085B000AFF860B9607A60BB68DBB2002B6F
:1047400004D0FB6828331A467B681360BB6803F407
:104750007F43002B04D0FB682C331A467B68136020
:1047600000BF1437BD4680BC704780B483B000AF33
:10477000786039603B68FF2B03D17B6828331B6866
:1047800002E07B682C331B6818460C37BD4680BCA2
:10479000704780B483B000AF786039603B68FF2B0E
:1047A00003D17B6848331B6802E07B684C331B688D
:1047B00018460C37BD4680BC704780B485B000AF4A
:1047C000F860B9607A60BB68DBB2002B04D0FB688C
:1047D00030331A467B681360BB6803F47F43002BB9
:1047E00004D0FB6834331A467B68136000BF14376B
:1047F000BD4680BC704780B483B000AF786039603C
:104800003B68FF2B03D17B6830331B6802E07B6879
:1048100034331B6818460C37BD4680BC704780B5E2
:1048200084B000AFF860B9607A60FB68184A9342C0
:104830000DD0FB68174A934207D0FB68164A934293
:1048400001D1272304E0332302E0252300E02323C2
:10485000FB60BB68DBB2002B06D07968F86800F01B
:10486000E6FAF86800F0AEFBBB6803F47F43002B68
:104870000AD0FB6801337968184600F0D8FAFB6863
:104880000133184600F09EFB00BF1037BD4680BDC7
:1048900000000340001003400020034080B582B0B8
:1048A00000AF786039607B68174A93420DD07B680F
:1048B000164A934207D07B68154A934201D12723B9
:1048C00004E0332302E0252300E023237B603B68E0
:1048D000DBB2002B05D0786800F0BEFB786800F0F2
:1048E000D7FA3B6803F47F43002B09D07B68013380
:1048F000184600F0B1FB7B680133184600F0C8FA97
:1049000000BF0837BD4680BD0000034000100340D3
:104910000020034080B483B000AF786039607B68CA
:1049200018331A687B68183319463B6813430B60C9
:1049300000BF0C37BD4680BC704780B483B000AF69
:10494000786039607B6818331A683B68DB437968A4
:10495000183113400B6000BF0C37BD4680BC704758
:1049600080B483B000AF78600B46FB70FB78002BFF
:1049700003D07B6820331B6802E07B681C331B6814
:1049800018460C37BD4680BC704780B483B000AF7A
:10499000786039607B6824331A463B68136000BF37
:1049A0000C37BD4680BC704780B483B000AF7860E0
:1049B00039607B6810331A463B68136000BF0C37C0
:1049C000BD4680BC704700BF80B584B000AF786042
:1049D0000B46FB7000F038F8FB78002B02D00F4B31
:1049E000FB6001E00E4BFB60FA6813469B0013442A
:1049F0009B001A467B681344591EFA6813469B00B5
:104A000013449B00B1FBF3F3013BBB60054ABB6859
:104A1000136000BF1037BD4680BD00BF801A06007E
:104A2000A08601000C00024080B582B000AF0346B2
:104A3000FB7100F017F8034AFB79136000BF0837D9
:104A4000BD4680BD0008024080B400AF044B1B6827
:104A5000034A43F01003136000BFBD4680BC70479B
:104A60002000024080B400AF064B1B68054A43F0AB
:104A700020031360044B01221A6000BFBD4680BCB6
:104A8000704700BF200002400408024080B400AF1D
:104A9000044B1B68034A23F01003136000BFBD469C
:104AA00080BC70472000024080B400AF064B00225B
:104AB0001A60064B1B68054A23F02003136000BFF1
:104AC000BD4680BC704700BF040802402000024081
:104AD00080B582B000AF78607968182000F0A7F93F
:104AE000182000F06FFA00BF0837BD4680BD80B5C2
:104AF00000AF182000F0B0FA182000F0C9F900BF8C
:104B000080BD80B400AF034B01221A6000BFBD46D8
:104B100080BC70471000024080B400AF044B1B689B
:104B2000034A43F00103136000BFBD4680BC7047D9
:104B30000C08024080B483B000AF7860054B1A685F
:104B400004497B6813430B6000BF0C37BD4680BC33
:104B5000704700BF0C08024080B400AF034B002236
:104B60001A6000BFBD4680BC704700BF1000024005
:104B700080B400AF044B1B68034A23F001031360A9
:104B800000BFBD4680BC70470C08024080B483B0B3
:104B900000AF7860054B1A687B68DB43034913401C
:104BA0000B6000BF0C37BD4680BC70470C0802404C
:104BB00080B483B000AF0346FB71FB79002B07D0B4
:104BC000094B1B68002B14BF01230023DBB206E056
:104BD000064B1B68002B14BF01230023DBB21846D1
:104BE0000C37BD4680BC70471800024014000240DC
:104BF00080B483B000AF0346FB71FB79002B07D074
:104C0000094B1B68002B14BF01230023DBB206E015
:104C1000064B1B68002B14BF01230023DBB2184690
:104C20000C37BD4680BC7047140802401008024093
:104C300080B483B000AF0346FB71FB79002B02D038
:104C4000044B1B6801E0044B1B6818460C37BD463B
:104C500080BC7047140802401008024080B400AFC6
:104C6000044B01221A60044B01221A6000BFBD46AA
:104C700080BC70471C0002401800024080B400AFA6
:104C8000034B01221A6000BFBD4680BC704700BFC5
:104C90001808024080B483B000AF7860034A7B6894
:104CA000136000BF0C37BD4680BC70471808024037
:104CB00080B483B000AF03460A46FB711346BB7154
:104CC000FB795A00BB791A43034B1A6000BF0C37BB
:104CD000BD4680BC704700BF0000024080B400AFFA
:104CE000064B1B6803F00103002B01D0012300E0F9
:104CF00000231846BD4680BC704700BF0400024038
:104D000080B400AF064B1B6803F04003002B01D0BA
:104D1000012300E000231846BD4680BC704700BF59
:104D20000400024080B483B000AF7860034A7B681F
:104D3000136000BF0C37BD4680BC704704000240C2
:104D400080B483B000AF0C4B1B687B607B6803F0C2
:104D50000103002B01D0002309E07B6803F012035C
:104D6000002B03D07B6803F01C0300E000231846EF
:104D70000C37BD4680BC70470400024080B483B04D
:104D800000AF0346FB71044AFB79136000BF0C3788
:104D9000BD4680BC704700BF0800024080B400AF31
:104DA000024B1B681846BD4680BC70470800024095
:104DB00080B400AF024B1B681846BD4680BC7047EC
:104DC0000408024080B483B000AF0346FB71044A7C
:104DD000FB79136000BF0C37BD4680BC704700BF35
:104DE0000808024080B400AF024B1B681846BD465D
:104DF00080BC70470808024080B400AFFEE780B571
:104E000000AF01F05EFC0346002B14BF012300231A
:104E1000DBB2184680BD80B500AF01F045FC03460B
:104E2000002B14BF01230023DBB2184680BD80B4E1
:104E300085B000AF78603960134B1B68134A93420A
:104E400018D0114B1B68BB600023FB600CE0FB68B3
:104E50009A00BB6813441B6819460C4AFB6842F869
:104E60002310FB680133FB60FB68A22BEFD9064BD4
:104E7000064A1A6005497B683A6841F8232000BF5A
:104E80001437BD4680BC704708ED00E000400020AC
:104E900080B483B000AF7860044A7B68044942F86C
:104EA000231000BF0C37BD4680BC70470040002077
:104EB000F94D200080B483B000AF7860074A7B686A
:104EC00052F82330064A43F0BF6343F400331360C3
:104ED00000BF0C37BD4680BC704700BF486E200045
:104EE0000CED00E080B483B000AF0E4B1B6803F400
:104EF000E0633B6000237B6009E00B4A7B6852F86B
:104F000023303A689A4206D07B6801337B607B6825
:104F1000072BF2D900E000BF7B6818460C37BD466E
:104F200080BC70470CED00E0486E200080B485B076
:104F300000AF78600B46FB707B689B08144A52F800
:104F400023301B68FB607B6803F00303DB00FF2258
:104F500002FA03F3DB431A46FB681340FB60FA785E
:104F60007B6803F00303DB0002FA03F31A46FB68D5
:104F70001343FB607B689B08054A52F823301A46AE
:104F8000FB68136000BF1437BD4680BC704700BF8C
:104F9000686E200080B483B000AF78607B689B08A7
:104FA000074A52F823301A687B6803F00303DB00DA
:104FB00022FA03F3DBB218460C37BD4680BC7047BB
:104FC000686E200080B483B000AF78607B68042BEB
:104FD00006D11E4B1B681D4A43F4803313602FE03B
:104FE0007B68052B06D1194B1B68184A43F4003324
:104FF000136025E07B68062B06D1144B1B68134A0F
:1050000043F4802313601BE07B680F2B06D1104B09
:105010001B680F4A43F00203136011E07B680F2BFB
:105020000ED97B68103B03F01F03012202FA03F143
:105030007B68103B5B09074A52F823300A461A6026
:1050400000BF0C37BD4680BC704700BF24ED00E0B8
:1050500010E000E00C6F200080B483B000AF7860F7
:105060007B68042B06D11E4B1B681D4A23F480333A
:1050700013602FE07B68052B06D1194B1B68184A7B
:1050800023F40033136025E07B68062B06D1144B14
:105090001B68134A23F4802313601BE07B680F2BEB
:1050A00006D1104B1B680F4A23F00203136011E076
:1050B0007B680F2B0ED97B68103B03F01F03012286
:1050C00002FA03F17B68103B5B09074A52F8233070
:1050D0000A461A6000BF0C37BD4680BC704700BF4F
:1050E00024ED00E010E000E0206F200080B483B0E9
:1050F00000AF78607B68022B06D1194B1B68184AF9
:1051000043F00043136025E07B680E2B06D1144B5F
:105110001B68134A43F0805313601BE07B680F2B1E
:1051200006D10F4B1B680E4A43F08063136011E0F9
:105130007B680F2B0ED97B68103B03F01F03012205
:1051400002FA03F17B68103B5B09064A52F82330F0
:105150000A461A6000BF0C37BD4680BC704700BFCE
:1051600004ED00E0346F200080B483B000AF7860BD
:105170007B680E2B06D1144B1B68134A43F0006367
:1051800013601BE07B680F2B06D10F4B1B680E4A88
:1051900043F00073136011E07B680F2B0ED97B681E
:1051A000103B03F01F03012202FA03F17B68103B5E
:1051B0005B09064A52F823300A461A6000BF0C37D2
:1051C000BD4680BC704700BF04ED00E0486F200082
:1051D00080B582B000AF7860786801F082FA00BFD5
:1051E0000837BD4680BD80B500AF01F07EFA0346AA
:1051F000184680BD80B400AF044B1B68034A43F0DF
:105200000103136000BFBD4680BC704798200D406D
:1052100080B400AF044B1B68034A23F00103136002
:1052200000BFBD4680BC704798200D4080B400AFE1
:10523000064B1B6803F00103002B01D0012300E0A3
:1052400000231846BD4680BC704700BF98200D4023
:1052500080B489B000AFF8600B467A60FB72254BD2
:10526000FB610023BB613CE0FA7ABB6942FA03F3BD
:1052700003F001037B617B69002B2FD0FB681E4A82
:10528000934213D01C4A934203D81C4A934207D03E
:105290001EE01B4A93420FD01A4A934212D017E0E5
:1052A000194ABB6952F82330FB6114E0174ABB6905
:1052B00052F82330FB610EE0154ABB6952F82330E7
:1052C000FB6108E0134ABB6952F82330FB6102E03E
:1052D000084BFB6100BFFB697A681A60BB69013348
:1052E000BB61BB69072BBFD900BF2437BD4680BC5B
:1052F000704700BF00400D4000A00D4000900D40E1
:1053000000B00D4000C00D40DC6F2000FC6F20009D
:105310001C7020003C70200080B487B000AFF860A3
:105320000B467A60FB7200237B61FB68634A934201
:1053300037D0624A934203D8614A934207D0ABE028
:10534000604A934256D0604A93427CD0A4E0FB7AF4
:10535000012B01D100237B61FB7A022B01D10123B8
:105360007B61FB7A042B01D102237B61FB7A082B42
:1053700001D103237B61FB7A102B01D104237B61D4
:10538000FB7A202B01D105237B61FB7A402B01D1D5
:1053900006237B61FB7A802B40F0818007237B61B1
:1053A0007DE0FB7A012B01D108237B61FB7A022B84
:1053B00001D109237B61FB7A042B01D10A237B6194
:1053C000FB7A082B01D10B237B61FB7A102B01D1D7
:1053D0000C237B61FB7A202B01D10D237B61FB7AAF
:1053E000402B01D10E237B61FB7A802B59D10F23F7
:1053F0007B6156E0FB7A012B01D110237B61FB7AA4
:10540000022B01D111237B61FB7A042B01D11223E2
:105410007B61FB7A082B01D113237B61FB7A102B74
:1054200001D114237B61FB7A202B01D115237B61F1
:10543000FB7A402B01D116237B61FB7A802B32D182
:1054400017237B612FE0FB7A012B01D118237B61AD
:10545000FB7A022B01D119237B61FB7A042B01D14A
:105460001A237B61FB7A082B01D11B237B61FB7A1A
:10547000102B01D11C237B61FB7A202B01D11D2332
:105480007B61FB7A402B01D11E237B61FB7A802B51
:105490000BD11F237B6108E000237B6106E000BF86
:1054A00004E000BF02E000BF00E000BF7B687A6953
:1054B0001A6000BF1C37BD4680BC704700A00D407D
:1054C00000900D4000B00D4000C00D4080B489B088
:1054D00000AFF8600B467A60FB72254BFB6100233E
:1054E000BB613CE0FA7ABB6942FA03F303F00103C3
:1054F0007B617B69002B2FD0FB681E4A934213D03F
:105500001C4A934203D81C4A934207D01EE01B4A10
:1055100093420FD01A4A934212D017E0194ABB693E
:1055200052F82330FB6114E0174ABB6952F823306C
:10553000FB610EE0154ABB6952F82330FB6108E0BD
:10554000134ABB6952F82330FB6102E0114BFB6147
:1055500000BFFB697A681A60BB690133BB61BB6934
:10556000072BBFD900BF2437BD4680BC704700BFA2
:1055700000400D4000A00D4000900D4000B00D40D7
:1055800000C00D405C6F20007C6F20009C6F2000ED
:10559000BC6F200080400D4080B485B000AF7860C3
:1055A0000B46FB70644BFB607B68644A934237D0C8
:1055B000624A934203D8624A934207D0ABE0614A01
:1055C000934256D0604A93427CD0A4E0FB78012BF2
:1055D00001D1594BFB60FB78022B01D15B4BFB6087
:1055E000FB78042B01D15A4BFB60FB78082B01D1CF
:1055F000584BFB60FB78102B01D1574BFB60FB78BD
:10560000202B01D1554BFB60FB78402B01D1544B33
:10561000FB60FB78802B40F08180524BFB607DE08B
:10562000FB78012B01D1504BFB60FB78022B01D1A1
:105630004E4BFB60FB78042B01D14D4BFB60FB789C
:10564000082B01D14B4BFB60FB78102B01D14A4B4F
:10565000FB60FB78202B01D1484BFB60FB78402B93
:1056600001D1474BFB60FB78802B59D1454BFB6048
:1056700056E0FB78012B01D1434BFB60FB78022BFA
:1056800001D1424BFB60FB78042B01D1404BFB6006
:10569000FB78082B01D13F4BFB60FB78102B01D12D
:1056A0003D4BFB60FB78202B01D13C4BFB60FB7832
:1056B000402B01D13A4BFB60FB78802B32D1394B28
:1056C000FB602FE0FB78012B01D1374BFB60FB78AF
:1056D000022B01D1354BFB60FB78042B01D1344BFD
:1056E000FB60FB78082B01D1324BFB60FB78102B61
:1056F00001D1314BFB60FB78202B01D12F4BFB609C
:10570000FB78402B01D12E4BFB60FB78802B0BD11B
:105710002C4BFB6008E0084BFB6006E000BF04E098
:1057200000BF02E000BF00E000BFFB681B68184636
:105730001437BD4680BC704780400D4000A00D402E
:1057400000900D4000B00D4000C00D4084400D4061
:1057500088400D408C400D4090400D4094400D40DD
:1057600098400D409C400D40A0400D40A4400D408D
:10577000A8400D40AC400D40B0400D40B4400D403D
:10578000B8400D40BC400D40C0400D40C4400D40ED
:10579000C8400D40CC400D40D0400D40D4400D409D
:1057A000D8400D40DC400D40E0400D40E4400D404D
:1057B000E8400D40EC400D40F0400D40F4400D40FD
:1057C000F8400D40FC400D4080B582B000AF7860DD
:1057D0007968A120FFF72BFBA120FFF7F3FB00BFA7
:1057E0000837BD4680BD80B500AFA120FFF734FC6F
:1057F000A120FFF74DFB00BF80BD80B483B000AF98
:105800000D4B1B687B600D4B1B681B027A681343B2
:105810007B600B4B1B681B047A6813437B60094B4E
:105820001B681B067A6813437B607B6818460C373D
:10583000BD4680BC704700BF40500D4044500D40F5
:1058400048500D404C500D4080B485B000AF78609A
:1058500039600A4B1B68FB60FB6823F03F03FB6069
:105860007A683B681343FA681343FB60034AFB689A
:10587000136000BF1437BD4680BC704754500D40C4
:1058800080B483B000AF786000BF0E4B1B6803F09C
:105890000103002BF9D00C4A7B681B0E13607B6858
:1058A0001B0C0A4ADBB213607B681B0A084ADBB296
:1058B0001360084A7B68DBB2136000BF0C37BD463B
:1058C00080BC704750500D404C500D4048500D402A
:1058D00044500D4040500D4080B483B000AF0D4B9C
:1058E0001B687B600C4B1B681B027A6813437B6050
:1058F0000A4B1B681B047A6813437B60084B1B68C8
:105900001B067A6813437B607B6818460C37BD46DC
:1059100080BC70475C500D4060500D4064500D409D
:1059200068500D4080B483B000AF074B1B6803F094
:105930000103002B14BF01230023FB71FB791846E0
:105940000C37BD4680BC704758500D4080B483B0C2
:1059500000AF074B1B687B607B6823F001037B6013
:10596000034A7B68136000BF0C37BD4680BC70479C
:1059700058500D4080B586B000AF03463A60FB71C9
:105980000B46BB71BB7983F00103DBB2002B07D060
:10599000244B1B6843F400133B61224A3B691360AC
:1059A000204B1B683B613A691F4B13403B61FB79FD
:1059B00083F00103DBB2002B03D03B6943F080731B
:1059C0003B61BB79002B02D04FF4803300E0002311
:1059D000BB603A69BB6813433B613A693B68134358
:1059E0003B61104A3B691360104B1B687B610023CD
:1059F000FB6008E0102000F0DBF80C4B1B687B61BB
:105A0000FB680133FB607B6903F48033BA689A4218
:105A100004D0FB684FF6FE729342EBD900BF1837F3
:105A2000BD4680BD00200D40F8FFFEFE04200D4065
:105A300080B485B000AF1E4B1B68BB60BB6803F031
:105A400007037B600023FB607B68072B2AD801A239
:105A500052F823F0755A20007B5A2000815A20000A
:105A6000875A20008D5A2000935A2000995A20000E
:105A70009F5A20000F4BFB6014E00F4BFB6011E0BE
:105A80000E4BFB600EE00E4BFB600BE00D4BFB6022
:105A900008E00D4BFB6005E00C4BFB6002E00C4B9B
:105AA000FB6000BFFB6818461437BD4680BC7047DA
:105AB00004200D400048E8010024F40000127A00A0
:105AC00000093D0080841E0040420F0020A1070015
:105AD00090D0030080B485B000AF7860094B1B689C
